:100000000C945D000C9485000C9485000C94850084
:100010000C9485000C9485000C9485000C9485004C
:100020000C9485000C9485000C9485000C9485003C
:100030000C9485000C9485000C9485000C9485002C
:100040000C946A020C9485000C9438020C941202F1
:100050000C9485000C9485000C9485000C9485000C
:100060000C9485000C9485000000000024002700FB
:100070002A0000000000250028002B0004040404CE
:100080000404040402020202020203030303030342
:10009000010204081020408001020408102001021F
:1000A00004081020000000080002010000030407FB
:1000B0000000000000000000BD0311241FBECFEFB0
:1000C000D8E0DEBFCDBF11E0A0E0B1E0E4EEF7E0A4
:1000D00002C005900D92A231B107D9F721E0A2E14B
:1000E000B1E001C01D92AE3BB207E1F710E0CDE5F3
:1000F000D0E004C02197FE010E94EA03CC35D1076D
:10010000C9F70E94B4020C94F0030C94000090E034
:10011000FC01EC55FF4F2491FC01E057FF4F349157
:10012000FC01E458FF4FE491EE23B9F0222339F0AB
:100130002330F1F098F4213009F1223019F1F0E088
:10014000EE0FFF1FEE58FF4FA591B4918FB7F894B3
:10015000EC9130953E233C938FBF08952730A9F052
:100160002830C9F0243059F7809180008F7D03C07A
:10017000809180008F7780938000E1CF84B58F7766
:1001800084BDDDCF84B58F7DFBCF8091B0008F77AC
:100190008093B000D4CF8091B0008F7DF9CFAF9223
:1001A000BF92CF92DF92EF92FF920F931F93CF9364
:1001B000DF936C017B018B01040F151FEB015E01C6
:1001C000AE18BF08C017D10759F06991D601ED915B
:1001D000FC910190F081E02DC6010995892B79F7FA
:1001E000C501DF91CF911F910F91FF90EF90DF90AC
:1001F000CF90BF90AF900895FC01538D448D252F73
:1002000030E0842F90E0821B930B541710F0CF96B0
:10021000089501970895FC01918D828D981761F0E2
:10022000A28DAE0FBF2FB11D5D968C91928D9F5FF9
:100230009F73928F90E008958FEF9FEF0895FC01D8
:10024000918D828D981731F0828DE80FF11D858D8B
:1002500090E008958FEF9FEF0895FC01918D228D1E
:10026000892F90E0805C9F4F821B91098F739927A3
:10027000089581E291E00E942D0121E0892B09F48B
:1002800020E0822F089580E090E0892B29F00E94E1
:10029000390181110C9400000895FC01A48DA80F70
:1002A000B92FB11DA35ABF4F2C91848D90E00196B8
:1002B0008F739927848FA689B7892C93A089B189D8
:1002C0008C91837080648C93938D848D981306C079
:1002D0000288F389E02D80818F7D80830895EF92DD
:1002E000FF920F931F93CF93DF93EC0181E0888FF0
:1002F0009B8D8C8D98131AC0E889F989808185FFC0
:1003000015C09FB7F894EE89FF896083E889F98961
:1003100080818370806480839FBF81E090E0DF9163
:10032000CF911F910F91FF90EF900895F62E0B8DB6
:1003300010E00F5F1F4F0F731127E02E8C8D8E1171
:100340000CC00FB607FCFACFE889F989808185FFD8
:10035000F5CFCE010E944D01F1CFEB8DEC0FFD2FBB
:10036000F11DE35AFF4FF0829FB7F8940B8FEA8993
:10037000FB8980818062CFCF682F81E291E00C946D
:100380006F01CF93DF93EC01888D8823B9F0AA89A0
:10039000BB89E889F9898C9185FD03C0808186FD40
:1003A0000DC00FB607FCF7CF8C9185FFF2CF80818F
:1003B00085FFEDCFCE010E944D01E9CFDF91CF91B6
:1003C0000895CF93DF9390E0FC01E057FF4F249115
:1003D00084589F4FFC0184918823D1F090E0880FCE
:1003E000991FFC01E859FF4FA591B491FC01EE580B
:1003F000FF4FC591D49161110EC09FB7F8948C91B5
:10040000E22FE0958E238C932881E223E8839FBF1F
:10041000DF91CF9108958FB7F894EC91E22BEC9394
:100420008FBFF6CF1F920F920FB60F9211242F930A
:100430003F934F935F936F937F938F939F93AF936C
:10044000BF93EF93FF9381E291E00E944D01FF91F2
:10045000EF91BF91AF919F918F917F916F915F913C
:100460004F913F912F910F900FBE0F901F901895B5
:100470001F920F920FB60F9211242F938F939F9379
:10048000EF93FF93E0913101F09132018081E0918F
:100490003701F091380182FD1BC0908180913A01B3
:1004A0008F5F8F7320913B01821741F0E0913A01F9
:1004B000F0E0EF5DFE4F958F80933A01FF91EF9151
:1004C0009F918F912F910F900FBE0F901F901895B5
:1004D0008081F4CF1F920F920FB60F9211242F93A9
:1004E0003F938F939F93AF93BF9380911701909108
:1004F0001801A0911901B0911A013091160123E061
:10050000230F2D3758F50196A11DB11D209316011B
:100510008093170190931801A0931901B0931A01C9
:100520008091120190911301A0911401B0911501D5
:100530000196A11DB11D8093120190931301A09308
:100540001401B0931501BF91AF919F918F913F918D
:100550002F910F900FBE0F901F90189526E8230F34
:100560000296A11DB11DD2CF789484B5826084BD5E
:1005700084B5816084BD85B5826085BD85B58160A7
:1005800085BD80916E00816080936E001092810025
:1005900080918100826080938100809181008160E0
:1005A00080938100809180008160809380008091A1
:1005B000B10084608093B1008091B000816080932D
:1005C000B00080917A00846080937A0080917A00F4
:1005D000826080937A0080917A00816080937A00B3
:1005E00080917A00806880937A001092C100E09137
:1005F0003101F091320182E08083E0912D01F09190
:100600002E011082E0912F01F09130018FEC808358
:1006100010923901E0913501F091360186E0808336
:10062000E0913301F0913401808180618083E09119
:100630003301F0913401808188608083E09133013F
:10064000F0913401808180688083E0913301F091E2
:10065000340180818F7D808361E084E00E94E1012C
:1006600061E082E00E94E10160E08EE00E94E10131
:1006700060E082E10E94E10160E083E10E94E1012B
:1006800084E00E94870082E00E9487002FB7F894E0
:100690008091170190911801A0911901B0911A0150
:1006A0002FBF80931D0190931E01A0931F01B09353
:1006B000200180E4F82E00E010E02FB7F89480913C
:1006C000170190911801A0911901B0911A012FBF43
:1006D00040911D0150911E0160911F0170912001F8
:1006E000841B950BA60BB70B0B97A105B105C8F1A1
:1006F0002FB7F8948091170190911801A0911901DA
:10070000B0911A012FBF80931D0190931E01A093F9
:100710001F01B0932001F0927C0080917A008064E8
:1007200080937A0080917A0086FDFCCF80917800DA
:10073000C0917900DC2FC82FD0931C01C0931B01FE
:100740008FEF90E00E94BC0182E090E00E94BC012B
:100750008C2FCC0F990B0E94BC018EEF90E00E9471
:10076000BC010115110509F4A8CF0E9439018823A5
:1007700009F4A3CF0E940000A0CFE1E2F1E01382D0
:10078000128288EE93E0A0E0B0E084839583A68394
:10079000B78384E091E09183808385EC90E0958736
:1007A000848784EC90E09787868780EC90E0918B3B
:1007B000808B81EC90E0938B828B82EC90E0958B28
:1007C000848B86EC90E0978B868B118E128E138E25
:1007D000148E0895EE0FFF1F0590F491E02D0994FB
:0407E000F894FFCFBB
:1007E400000000006F01CF00FC00C1012D010B01CE
:0207F4001F01E3
:00000001FF
